:020000040800F2
:1000000000200020051300080D1100080F11000842
:1000100000000000000000000000000000000000E0
:1000200000000000000000000000000011110008A6
:100030000000000000000000131100081511000866
:1000400055130008551300085513000855130008F0
:1000500055130008551300085513000855130008E0
:100060000000000055130008551300085513000840
:100070005513000855130008000000001D1100086A
:100080000000000000000000000000000000000070
:100090002D11000800000000551300083D11000854
:1000A00000000000551300080000000000000000E0
:1000B0005513000855130008000000000000000060
:1000C000002243088B4274D303098B425FD3030A97
:1000D0008B4244D3030B8B4228D3030C8B420DD3AA
:1000E000FF22090212BA030C8B4202D31212090238
:1000F00065D0030B8B4219D300E0090AC30B8B4276
:1001000001D3CB03C01A5241830B8B4201D38B0323
:10011000C01A5241430B8B4201D34B03C01A5241C8
:10012000030B8B4201D30B03C01A5241C30A8B420B
:1001300001D3CB02C01A5241830A8B4201D38B02F6
:10014000C01A5241430A8B4201D34B02C01A52419A
:10015000030A8B4201D30B02C01A5241CDD2C3090C
:100160008B4201D3CB01C01A524183098B4201D388
:100170008B01C01A524143098B4201D34B01C01A73
:10018000524103098B4201D30B01C01A5241C308EB
:100190008B4201D3CB00C01A524183088B4201D35A
:1001A0008B00C01A524143088B4201D34B00C01A46
:1001B0005241411A00D20146524110467047FFE7B2
:1001C00001B5002000F006F802BDC0460029F7D0B6
:1001D00076E770477047C046002B11D1002A0FD137
:1001E000002900D1002802D00021C943080007B42B
:1001F000024802A14018029003BDC046D9FFFFFF8C
:1002000003B4684601B5029803F070F9019B9E465D
:1002100002B00CBC7047C0461C2101231B0498424D
:1002200001D3000C10391B0A984201D3000A083987
:100230001B09984201D30009043902A2105C40183E
:100240007047C046040302020101010100000000E2
:100250000000000010B5002903D1FFF7DDFF2030BA
:1002600002E00800FFF7D8FF10BDC0460448054B68
:1002700010B5834203D0044B002B00D0984710BD2B
:100280001400002014000020000000000648074968
:10029000091A8B10C90FC91810B5491003D0044BA7
:1002A000002B00D0984710BD14000020140000203F
:1002B0000000000010B5074C2378002B09D1FFF790
:1002C000D5FF054B002B02D0044800E000BF0123FE
:1002D000237010BD1400002000000000703F0008D3
:1002E000054B10B5002B03D00449054800E000BFC2
:1002F000FFF7CCFF10BDC046000000001800002032
:10030000703F000830B589B003AC142200212000F2
:1003100003F040FD134BD96A01221143D962D96A17
:10032000114001910199D86A02210843D862DB6A21
:100330000B400293029B0391049221000A4801F0B2
:10034000B9F880230393A025ED052100280001F0D2
:10035000B1F8402303932100280001F0ABF809B065
:1003600030BDC046001002400004005070B50C00C3
:10037000032830D018D8012841D0022853D1A02515
:10038000ED0500224021280001F059F9631E9C412F
:10039000E4B222008021280001F051F9220002215C
:1003A0002A4801F04CF929E004283CD1002202211E
:1003B000264801F044F9631E9C41E4B2A025ED05F6
:1003C00022008021280001F03AF922004021280073
:1003D00001F035F912E0631E9C41E2B202211B4894
:1003E00001F02DF9A024E40500228021200001F075
:1003F00026F900224021200001F021F970BD631E82
:100400009C41E2B2A024E4054021200001F017F94C
:1004100000228021200001F012F9002202210B4865
:1004200001F00DF9EAE700220221084801F007F97E
:10043000A024E40500228021200001F000F9002220
:100440004021200001F0FBF8D8E7C046000400502E
:10045000072844D88000254B1B589F46244B022276
:100460001A7000225A709A70DA707047204B01227D
:100470001A7000225A709A70DA70F6E71C4B01224B
:100480001A7001325A7000229A70DA70EDE7184B38
:1004900001221A705A7000229A70DA70E5E7144B44
:1004A00001221A705A7001329A700022DA70DCE769
:1004B0000F4B01221A705A709A700022DA70D4E73A
:1004C0000B4B01221A705A709A700132DA70CCE725
:1004D000074B01221A705A709A70DA70C5E7044B04
:1004E00001221A705A709A70DA70BEE7883F0008CD
:1004F0003800002010B500280DD0294A00231370C1
:10050000284A1370284A137003E0284A0021D15466
:100510000133032BF9DD224B1B78002B1CD0012B60
:1005200030D1204B1B785C1C204AD35C022B2AD094
:100530000121C9B22000FFF719FF1A4A13780133CD
:10054000DBB21370184A127893421BD3154B00226A
:100550001A70134B1A7015E0134B00221A70002307
:1005600000E00133032B0ADC114AD25C0F49CA5464
:10057000002AF6D00C490A7801320A70F1E7084BDC
:1005800001221A7010BD00F02FFFFA214900FFF779
:100590001DFEFA2901D90021CBE70121C9E7C04698
:1005A00036000020350000203400002030000020FC
:1005B0003800002010B588B003AC142200212000C0
:1005C00003F0E8FB0C4BD96A04221143D962D96AC3
:1005D0000A400192019AD96A01221143D962DB6A69
:1005E00013400293029B0392A0202100C00500F05B
:1005F00061FF08B010BDC0460010024010B50E48A3
:100600000E4B03600023436083601822C260173AD8
:10061000026143618361C361036243628362802339
:100620005B03C362064B036302F040F8002800D16D
:1006300010BD00F02BFBFBE73C0000200054004005
:100640000C80000010B586B004001422002101A81F
:1006500003F0A0FB2268154B9A4201D006B010BDF2
:10066000134CE26A01231A43E262E26A1A400092E2
:10067000009A01A9C022D200019212224A608B6026
:100680000F3ACA600B61A020C00500F013FFA26BF7
:1006900080239B031343A36300220021172000F053
:1006A000F5FE172000F0F6FED8E7C04600540040E3
:1006B0000010024070B582B0079E069C009402F0C4
:1006C00077F8040000F090FE0500084802F0BEFC38
:1006D000012807D0002C05D000F086FE401BB04258
:1006E000F3D90324200002B070BDC0463C000020B6
:1006F00070B582B0079D069C009402F0D7F8060002
:1007000000F072FE0400074802F0A0FC012805D0AA
:1007100000F06AFE001BA842F5D90326300002B0A3
:1007200070BDC0463C00002000B585B003AA002380
:10073000039344331370423B53709070000AD0709F
:10074000064B1978490006486423019380239B04D3
:1007500000930423FFF7AEFF05B000BD00000020AA
:100760003C0000207047000010B5084B01221A70B1
:10077000074A00231370074A1370074A1370074A89
:100780001370074802F004F910BDC0468E00002027
:100790008C000020900000208F0000208D000020A1
:1007A0003C00002070B50E0015001C001D4BDB7ACC
:1007B000002B01D101281FD0012B1BD0194B5B7BD3
:1007C000002B01D1012E1DD0012B19D0154B9B7B85
:1007D000002B01D1012D1BD0012B17D0114BDB7B3E
:1007E000002B01D1012C19D0012B15D00E4B00226A
:1007F0001A7070BD0028E1D12220FFF795FFDDE7D8
:10080000002EE3D12020FFF78FFFDFE7002DE5D199
:100810001F20FFF789FFE1E7002CE7D11E20FFF73B
:1008200083FFE3E7E40000200100002010B53C4B0B
:100830001A78042A0ED893003A4AD3589F463A4B66
:100840001B78002B07D10120FFF754FE0021012067
:10085000FFF78CFD10BD354802F0B8FC324B00228A
:100860001A70F0E7304B1B78002B04D0304B18780F
:10087000FFF7EEFDEEE72D4802F078FC2A4B01224F
:100880001A7000210120FFF771FDEFE7264B1B785E
:10089000002B0DD000F0A8FD264B1B68C01AFA21D2
:1008A000FFF70EFC40000130C0B2FFF7D1FDD1E7E9
:1008B0001E4802F05BFC1C4B01221A700021012033
:1008C000FFF754FDE6E7184B1B78002B04D0184BBC
:1008D0001878FFF7BDFDBDE7144802F047FC124B46
:1008E00001221A70F3E7104B1B78002B0DD000F09B
:1008F0007BFDFA218900FFF769FCFA235B0099422E
:100900000AD30720FFF7A4FDA4E7084802F02EFC55
:10091000054B01221A70EAE70020FFF799FD99E7DD
:100920002A010020A83F00082D010020940100208A
:100930000C0100201C010020024BDA7F024B1A70D0
:100940007047C046940000202901002010B5134BC9
:100950001B8809339BB2122B1AD8114B1B78002B22
:1009600007D10F4B01221A7000F03EFD0D4B1860AD
:1009700013E000F039FD0B4B1B68C01A0A4B98427C
:100980000BD90A4B01221A70054B00221A7004E0A1
:10099000064B00221A70024B1A7010BD180100207D
:1009A0002001002024010020102700002801002041
:1009B000074B5B7B012B03D0064B00221A7070475C
:1009C000034B9B7B012BF7D1024B01221A70F6E7F8
:1009D000E40000202B010020F0B5DE4657464E46CD
:1009E0004546E0B587B00F2302AA944663444422EB
:1009F0001A70363A62440E231370013B63449B46DF
:100A00000A2359460B7005AB9A46092351460B70D1
:100A1000023363449946162349460B708A4E317857
:100A200049008A4C642501950023984600930133C0
:100A30002000FFF73FFE864B1870864A3178490048
:100A400001958027BF040097012303922000FFF740
:100A50004FFE3178490001954346009301335A46D1
:100A60002000FFF727FE7C4A317849000195009766
:100A700002232000FFF73CFE3178490001954346F0
:100A80000093013352462000FFF714FE734A317879
:100A900049000195009702232000FFF729FE039BE0
:100AA0001878013803F048F900226D4B02F0EAFD96
:100AB0006C4B9A4603F004F95346186031784900AC
:100AC00001954346009301334A462000FFF7F2FDAB
:100AD000654A317849000195009702232000FFF70D
:100AE00007FE002309E00F22D21A5F49098811414D
:100AF00001220A405D49CA5401330F2BF3DD572010
:100B0000FFF712FE504C21784900504D64270197A1
:100B10008026B604009601230F2202A88446624470
:100B20002800FFF7C7FD524A217849000197009637
:100B3000052314002800FFF7DBFD2379E0781B0272
:100B40001843002308E00F22D21A010011410122AC
:100B50000A404849CA5401330F2BF4DD5020FFF7F7
:100B6000E3FD394C21784900384D642701978026F0
:100B7000B604009601230F2202A88446624428008E
:100B8000FFF798FD3C4A217849000197009607231A
:100B900014002800FFF7ACFDA079000663791B0460
:100BA000184323791B021843E3781843002208E016
:100BB00080231B06D3400340591E8B412F498B5481
:100BC00001321F2AF4DD5420FFF7AEFD1E4C2178C0
:100BD00049001E4D642701978026B6040096012324
:100BE0000F2202A8844662442800FFF763FD244ACE
:100BF0002178490001970096072314002800FFF789
:100C000077FDA079000663791B04184323791B0242
:100C10001843E3781843002208E080231B06D340E2
:100C20000340591E8B4117498B5401321F2AF4DDB2
:100C3000FFF7BEFE144B01221A7007B0F0BCBB4692
:100C4000B246A946A046F0BD000000203C000020AE
:100C500010010020140100201801002016010020BE
:100C6000000029400C01002012010020FC0000209F
:100C7000F4000020E4000020DC000020BC00002084
:100C8000B4000020940000200100002072B6FEE7AE
:100C900030B599B00BAC34220021200003F07AF873
:100CA0001422002106A803F075F8182200216846D6
:100CB00003F070F81F490A681F4D2A4080231B016A
:100CC00013430B6000F0C2FC1C4A136D2B401365EC
:100CD00014230B93EC330D93FF3B119300231293DA
:100CE0008022120213921493200000F021FD0028AC
:100CF0001AD106A80F230693002343608360C360C4
:100D00000361002100F0A2FF00280FD168462823CC
:100D100000930023049380235B02019301F082F887
:100D2000002805D119B030BDFFF7B0FFFFF7AEFFC7
:100D3000FFF7ACFF00700040FFE7FFFF001002402C
:100D400010B50B4A916B80235B050B439363094AF3
:100D5000136804210B43136007480422053101F096
:100D60001FFB002802D100F07BFC10BDFFF78EFFB7
:100D700000100240007000403001002070B5A0203B
:100D80000121C00500F054FC050043425841C4B2A3
:100D9000824B1E7800F028FB8149FFF717FA814B40
:100DA000994203D8804B1B78234317D000F01CFBDB
:100DB0007B49FFF70BFA7D4B994202D97A4B00220F
:100DC0001A70FFF7B9FDFFF7C1FD794B1A78062AB3
:100DD00000D9DCE09300774AD3589F46FFF7FCFD2B
:100DE000714B01221A70ECE701230122012100203E
:100DF000FFF7D8FC6E4B01221A706F4B00221A705D
:100E00006E4B1B78002B00D0ABE0644B01321A70A4
:100E1000A7E0002D03D0614B1B78012B06D1644B5A
:100E200003221A7000F0E0FA654B18605B4B1B78E8
:100E3000012B10D0594B1B78012B00D091E0614B56
:100E40001B78002B00D18CE0544B00221A70584BB9
:100E500002321A7085E05C4B5B7A002B07D0594A4E
:100E60001278002A09D1594A12780A2A05D9002B8A
:100E7000E0D1574B5B7A002BDCD0484B00221A7034
:100E8000D8E7002D6DD04A4B04221A704A4B033A22
:100E90001A7000F0A9FA4A4B186062E0002D13D1D5
:100EA00000F0A2FA464B1B68C01AFA23DB009842F6
:100EB00057D200F099FA424B18603D4B05221A7048
:100EC0003D4B033A1A704CE000F08EFA3C4B1B6825
:100ED000C01AFA23DB00984243D3354B01221A7023
:100EE000354B00221A703CE0002D0AD0304B042212
:100EF0001A70314B033A1A7000F076FA304B1860D2
:100F00002FE000F071FA2E4B1B68C01AFA239B00E9
:100F1000984226D3264B06221A70204B1B78012BB1
:100F20000BD02C4B1A882C4B9A421AD91B4B0122FE
:100F30001A70214B02321A7013E0184B00221A70FB
:100F40001D4B1A701A4B01321A700AE0002D08D09E
:100F5000174B01221A7004E0154B01221A70FFF79B
:100F6000EFFE0E4B1B78B3420ED01C4B1B78002BB0
:100F700011D00A4B197801394B425941C9B20123AA
:100F80000A000220FFF70EFCFFF750FC70BD084B73
:100F900000221A70E5E7FFF71FFDEAE72B010020AA
:100FA00088130000C40900001A010020C3090000D2
:100FB0002C010020BC3F00082A010020290100204C
:100FC0001C01002028010020FC000020140100204A
:100FD000BC00002016010020571B0000010000206B
:100FE00010B500F0E1F9FFF753FEFFF7E3FA00F068
:100FF000B9F8FFF703FB00F0F3F800F017F8FFF77C
:1010000081F9084B5B68DB0702D4FFF7B7FEFCE70A
:10101000044A116804230B431360034801F050FA9B
:10102000F3E7C046007000403001002000B587B0F3
:101030001422002101A802F0ADFE002300932248F3
:10104000224A026043607F2282608032C260C022F6
:10105000D203026143618361C36101F00BF8002890
:1010600026D101A920230B7010334B701B3B8B70D2
:101070000023CB600B611448012201F05DF80028C9
:1010800019D1694603230B704B7016338B700C33E8
:10109000CB700D48012201F0B7F800280ED10A48A4
:1010A00004220A2101F004F900280AD107B000BD8A
:1010B000FFF7ECFDD5E7FFF7E9FDE2E7FFF7E6FD17
:1010C000EDE7FFF7E3FDF1E73001002000280040E5
:1010D0000268054B9A4200D07047044A116D802384
:1010E000DB020B431365F7E70028004000100240C5
:1010F000054B5A6B01210A435A63996B80225205B2
:101100000A439A637047C04600100240FEE7FEE7BC
:101110007047704710B500F05BF910BD10B502487C
:1011200002F0F2F810BDC0469401002010B502484C
:1011300002F0EAF810BDC0465401002010B5074B7C
:101140001B689A69FC239B011A4203D0034801F0F3
:1011500093FC10BD014801F01BFFFAE73C000020A2
:101160007047000000B587B01022002102A802F0ED
:1011700011FE08220021684602F00CFE164880236A
:10118000DB050360002343608360144AC260802251
:1011900092000261436101F0C5FF002813D1802352
:1011A0005B0102930C4802A902F026F800280DD139
:1011B0006946002300930193074802F037F900289D
:1011C00007D107B000BDFFF761FDE8E7FFF75EFD5F
:1011D000EEE7FFF75BFDF4E7940100203C0A000016
:1011E00000B587B01022002102A802F0D3FD08222A
:1011F0000021684602F0CEFD1748184B0360184BDB
:10120000436000238360FA229200C260E93AFF3A09
:101210000261436101F086FF002813D180235B0146
:1012200002930D4802A901F0E7FF00280DD169469D
:10123000002300930193084802F0F8F8002807D132
:1012400007B000BDFFF722FDE8E7FFF71FFDEEE75F
:10125000FFF71CFDF4E7C0465401002000080140E0
:101260001103000010B503688022D205934203D019
:101270000F4A93420ED010BD0E4A936B01210B43CF
:101280009363002200210F2000F000F90F2000F0EE
:1012900001F9F0E7074A536B04210B435363002223
:1012A0000021142000F0F2F8142000F0F3F8E2E737
:1012B000000801400010024010B504000D4B984298
:1012C00003D00D4B9C4204D010BD0020FFF712F953
:1012D000F7E70A4B00241C70064801F077FF084B23
:1012E0001C700120FFF706F900210120FFF73EF8EE
:1012F000EAE7C04694010020540100202E0100209E
:101300002D0100200D488546FFF72AFF0C480D49A6
:101310000D4A002302E0D458C4500433C4188C4250
:10132000F9D30A4A0A4C002301E013600432A242B6
:10133000FBD302F079FDFFF753FEFEE7002000200B
:101340000000002014000020484000081400002085
:1013500070030020FEE7000010B504000F4B197861
:10136000FA208000FEF7ACFE01000D4B1868FEF776
:10137000A7FE00F09BF800280DD1032C01D9012015
:101380000AE0013000222100404200F07FF8054BC6
:101390001C60002000E0012010BDC04608000020B5
:1013A000040000200C00002010B5084A13684021FA
:1013B0000B4313600320FFF7CFFF041E02D001246C
:1013C000200010BDFFF794FEFAE7C046002002405F
:1013D000034A1168034B1B785B1813607047C046C3
:1013E000D401002008000020014B18687047C04657
:1013F000D401002070B5002811DB8308134DC033E1
:101400009B005C5903221040C000FC32160086404D
:10141000B44389010A40824022435A5170BD0F23D0
:101420000340083B9B0806339B00094A94466344EB
:101430005C6803221040C000FC3215008540AC43BC
:1014400089010A40824022435A60E7E700E100E058
:1014500000ED00E0013880235B0498420FD2094A76
:1014600050600948036A1B021B0AC02109060B438E
:10147000036200239360073313600020704701204C
:10148000FCE7C04610E000E000ED00E010B5FFF71B
:10149000B1FF10BD002805DB1F220240012393404D
:1014A000014A13607047C04600E100E010B5FFF745
:1014B000D1FF10BDF0B5002356E086685F0003241D
:1014C000BC40A643CC68BC40344384604468944329
:1014D0004E683609012232409A402243426053E06E
:1014E000DE080836B600375805321A4092000F243D
:1014F0009440A7430C69944022003A43325056E08E
:10150000052600E00026A64034003C43023292004B
:10151000414E9451414A9768EA433E00AE434C68BD
:10152000E40201D53E002E433C4CA660E7683E0035
:1015300016404C68A40201D53E002E43374CE660AD
:1015400067683E0016404C68A40301D53E002E4358
:10155000324C6660266832404C68E40301D52A00AC
:1015600032432E4C226001330C682200DA4052D004
:1015700001229A40250015401442F4D04E680324FD
:101580003440013C012C98D94C6803222240032AA4
:1015900008D0C4685E000322B24094438A68B24017
:1015A0002243C2604C6803222240022A98D0046879
:1015B0005E0003221700B740BC434F683A40B24078
:1015C000224302604C68C02292021442CBD0144CD9
:1015D000626B0126324362639A08941CA4000E4E8B
:1015E000A75903241C40A4000F26A640B743A026F9
:1015F000F605B04286D00B4EB04208D00A4EB0423B
:1016000007D00A4EB04200D17AE706267BE70126D2
:1016100079E7022677E7F0BD0000014000040140B1
:10162000001002400004005000080050001C005050
:1016300003690B4201D0012070470020FCE7002A1B
:1016400001D0816170478162FCE70000034A1168A4
:1016500080235B000B4313607047C046007000405E
:10166000054A136802210B431360044A13690231CF
:101670000B43136130BF70470070004000ED00E085
:1016800010B5264BDA680C231340082B42D00C2BE4
:1016900007D0042B34D1214B1B68DB063CD52048F6
:1016A00037E0910C0F230B401E49C85C920D0323B9
:1016B0001A40541C194BDB68DB0309D51A4A002376
:1016C000002101F0E5FE22000023FEF785FD20E069
:1016D000124B1B68DB0609D5114A0023002101F0DB
:1016E000D7FE22000023FEF777FD12E00F4A002309
:1016F000002101F0CDFE22000023FEF76DFD08E081
:10170000064B5A68520B0723134001338020000216
:10171000984010BD0448FCE70448FAE70010024076
:1017200000093D00D83F000800127A000024F400B0
:10173000F0B583B0041E00D165E2C54BDA680C2514
:101740001540DE6880235B021E400368DB0736D548
:10175000082D2CD00C2D28D0636880225202934291
:1017600055D0A022D202934258D0B94B1A68B94939
:101770000A401A601A68802149020A400192019ABF
:101780001A68B5490A401A606368002B52D0FFF707
:101790002BFE0700AE4B1B689B0310D4FFF724FE03
:1017A000C01B6428F6D903202EE2002ED4D0A84B0B
:1017B0001B689B0303D56368002B00D126E22368D6
:1017C0009B076DD5E3689A0605D5A14802682021DC
:1017D0000A4302608B43042D3CD00C2D38D0002BE3
:1017E00000D1B0E09A490A680920824313430B6094
:1017F000FFF7FAFD0600964B1B685B0700D599E0E2
:10180000FFF7F2FD801B0228F5D90320FCE1904A86
:10181000116880235B020B431360B5E78C4B19689A
:101820008022D2020A431A601968802252020A43B7
:101830001A60A9E7FFF7D8FD0700854B1B689B03DB
:10184000BDD5FFF7D1FDC01B6428F6D90320DBE12D
:10185000002EC4D17E4A1268520702D5002B00D157
:10186000D6E17B4E72687D490A40216909020A432C
:101870007260326809218A4313433360FFF700FF27
:10188000F26812090F231340754AD35CD840754B98
:101890001860754B1868FFF75FFD002800D0B3E1B2
:1018A0002368DB062DD5002D60D1694B1B689B0595
:1018B00003D5A369002B00D1ACE1654A53686B499D
:1018C0000B40216A0B43536053681B021B0AE169FA
:1018D00009060B435360216A490B013180231B0227
:1018E0008B40D16809090F220A405D498A5CD340C8
:1018F0005C4A13605C4B1868FFF72EFD002800D08F
:1019000082E123681B077DD56369002B67D0504AAD
:10191000136D01210B431365FFF766FD06004C4B69
:101920001B6D9B076ED4FFF75FFD801B0228F6D965
:10193000032069E146494B68484A13402269120274
:1019400013434B60ACE7424A136801218B43136099
:10195000FFF74AFD06003E4B1B685B07A0D5FFF76B
:1019600043FD801B0228F6D903204DE1A369002B1B
:1019700022D0374A116880235B000B431360FFF7C6
:1019800033FD0600324B1B689B0506D4FFF72CFD88
:10199000801B0228F6D9032036E12D4A53683349CB
:1019A0000B40216A0B43536053681B021B0AE16919
:1019B00009060B435360A4E7254A13682C490B40E2
:1019C0001360FFF711FD0600214B1B689B0598D59E
:1019D000FFF70AFD801B0228F6D9032014E11C4AF8
:1019E000136D01218B431365FFF7FEFC0600184BB6
:1019F0001B6D9B0706D5FFF7F7FC801B0228F6D965
:101A0000032001E123685B0700D48EE0104B9B6B41
:101A1000DB001BD40E4A916B80235B050B43936361
:101A20000126144B1B68DB0528D5A36880225200D1
:101A3000934237D0002B4DD1054B1A6D0C490A400B
:101A40001A651A6D0C490A401A6531E00026E8E76C
:101A500000100240FFFFFEFFFFFFFBFFFFE0FFFF64
:101A6000E43F0008040000200C000020FF1FFFFFDF
:101A7000FFFEFFFF00700040FFFBFFFF6B4A116895
:101A800080235B000B431360FFF7AEFC0700674B3E
:101A90001B68DB05C9D4FFF7A7FCC01B6428F6D977
:101AA0000320B1E0624A116D80235B000B43136594
:101AB000A368002B28D0FFF797FC07005C4B1B6D39
:101AC0009B0530D4FFF790FCC01B5A4B9842F5D9C8
:101AD000032099E0A022D200934209D0544B1A6D02
:101AE00055490A401A651A6D54490A401A65DFE7DC
:101AF0004F4B196D013AFF3A0A431A65196D80225E
:101B000052000A431A65D3E7FFF76EFC0700484B03
:101B10001B6D9B0507D5FFF767FCC01B454B984223
:101B2000F5D9032070E0012E1AD0636A002B00D192
:101B300072E00C2D4FD0022B18D03D4A136840495B
:101B40000B401360FFF750FC0400394B1B689B01EE
:101B50003FD5FFF749FC001B0228F6D9032053E0CC
:101B6000334A936B37490B409363DEE7304A13687F
:101B700033490B401360FFF737FC05002C4B1B6803
:101B80009B0106D5FFF730FC401B0228F6D9032045
:101B90003AE02749CB682C4A1340A26AE06A024324
:101BA000206B02431343CB600A6880235B0413431A
:101BB0000B60FFF719FC04001D4B1B689B0106D44A
:101BC000FFF712FC001B0228F6D903201CE00020BE
:101BD0001AE0002018E0012B20D0154BDA68802392
:101BE0005B021340A16A8B421AD1F0239B0313407E
:101BF000E16A8B4216D1C0231B041A40236B9A4220
:101C000012D1002000E0012003B0F0BD0120FBE76D
:101C10000120F9E70120F7E70020F5E70120F3E7CD
:101C20000120F1E70120EFE70120EDE7007000401F
:101C30000010024088130000FFFEFFFFFFFBFFFFC4
:101C4000FFFFFFFEFFFFFFEFFFFF02FF70B5050084
:101C50000C00002800D1D1E06A4B1A680123134020
:101C60008B4219D32B689B0706D5674AD368F021AE
:101C70008B43A9680B43D3602B68DB077BD56B686C
:101C8000022B20D0032B40D0012B44D05E4A126897
:101C900092051DD4012099E05A4A136801218B4313
:101CA00023431360FFF7A0FB0600564B1A6801237D
:101CB0001340A342D6D0FFF797FB801B534A9042B4
:101CC000F3D9032082E0504A1268920300D497E0CF
:101CD0004D49CA68032082431343CB60FFF784FB5E
:101CE00006006B68022B1CD0032B28D0012B34D0AC
:101CF000454BDB680C221A423DD0FFF775FB801B79
:101D0000424B9842F4D9032060E03F4A12689201A6
:101D1000DED401205AE03C4A12685207D8D4012090
:101D200054E0394BDA680C231340082B23D0FFF71B
:101D30005BFB801B354A9042F3D9032046E0324BCF
:101D4000DA680C2313400C2B15D0FFF74DFB801BDA
:101D50002E4B9842F3D9032038E02B4BDA680C2342
:101D60001340042B07D0FFF73FFB801B274B984203
:101D7000F3D903202AE0234B1A6801231340A3421E
:101D800025D82B685B0706D51F4AD36820490B402E
:101D9000E9680B43D3602B681B0707D51A49CB684A
:101DA0001C4A13402A69D2001343CB60FFF768FC3A
:101DB000154BDA6812090F231340174AD35CD84039
:101DC000164B1860164B1868FFF7C6FA70BD0D4A1F
:101DD000136801218B4323431360FFF705FB0600C3
:101DE000084B1A6801231340A342CAD0FFF7FCFA3C
:101DF000801B064B9842F3D90320E7E70120E5E773
:101E00000120E3E700200240001002408813000098
:101E1000FFF8FFFFFFC7FFFFE43F000804000020BA
:101E20000C00002070B5040003689B0651D55D4B83
:101E30009B6BDB0000D576E05A4A916B80235B05F3
:101E40000B4393630126584B1B68DB0500D46CE001
:101E5000544B1B6862685340C02189030B4206D073
:101E6000C0239B0211001940994200D172E04D4BF2
:101E7000196DC0239B0208001840194215D01A4062
:101E8000824212D023689B060FD5464B1A6D4749F4
:101E900011401D6D8020000328431865186D444DC6
:101EA000284018651965D2055BD423689B060ED5BA
:101EB0006368C022920219001140914260D03949F2
:101EC0000B6D6268C0208002024013430B65012E37
:101ED00060D023689B0706D5324AD36C0C218B4314
:101EE000A1680B43D36423685B0706D52D4AD36CE6
:101EF00030490B40E1680B43D36423681B0706D5C8
:101F0000284AD36C2C490B4021690B43D3642368C6
:101F10001B0645D5234AD36C28490B4061690B4306
:101F2000D364002070BD00268DE71F4A116880230E
:101F30005B000B431360FFF757FA05001A4B1B6851
:101F4000DB0500D584E7FFF74FFA401B6428F5D97D
:101F50000320E7E7134B1B689B0300D487E70120AE
:101F6000E0E7FFF741FA05000E4B1B6D9B059CD483
:101F7000FFF73AFA401B124B9842F5D90320D1E7FC
:101F800008490A680F480240C020800303401343F9
:101F90000B6094E7034A936B0B490B40936398E7FC
:101FA0000020BFE70010024000700040FFFFFCFF70
:101FB000FFFFF7FFFFF3FFFFFFCFFFFFFFFFF3FF81
:101FC00088130000FFFFCFFFFFFFFFEF70B5040095
:101FD00003680A4ADA60FFF707FA05002368DB683E
:101FE0009B0608D4FFF700FA401BFA239B00984297
:101FF000F4D9032000E0002070BDC0465FFF01005F
:1020000070B504000268D3685B0602D5002528007D
:1020100070BDD36880210B43D360FFF7E5F906005C
:1020200000252368DB685B06F1D4012DEFD0FFF7B4
:10203000DBF9801BFA2292009042F2D9212304227C
:10204000E2540125EDE710B504000268D368802151
:102050008B43D36003689B689B0601D5002010BDAD
:10206000FFF7B4FF0028FAD021230422E254012014
:10207000F5E7000070B5041E4ED02123C35C002B91
:102080000BD021230222E2542268D368DB060AD552
:10209000002021230122E25470BD20330022C254CB
:1020A000FFF716F8EDE7CA235362236853225A62FA
:1020B0002000FFF7A5FF002805D02368FF225A6201
:1020C0000028E9D1E5E72268936814490B40936042
:1020D00021688A68636820690343A0690343134346
:1020E0008B602368E2681A6121680B69A268120498
:1020F00013430B612000FFF7A6FF0028DDD1226803
:10210000D36C03218B43D3642168CB6CE26965698E
:102110002A431343CB64D0E70120BDE7BFFF8FFF05
:10212000002302E001330A38C0B20928FAD81B01A3
:10213000DBB218437047000070B504000E00202386
:10214000C35C012B59D020230121C154013301313B
:10215000C154002A27D103689B685B0601D4002381
:10216000F3703078FFF7DCFF05047078FFF7D8FFD5
:1021700000020543B078FFF7D3FF0543F3789B05D2
:102180001D432368CA225A622368773A5A622000A4
:10219000FFF736FF002817D02368FF225A6220235A
:1021A0000022E25470BD03689B685B0601D40023E3
:1021B000F37035782D0473781B021D43B3781D43EB
:1021C000F3789B051D43DCE723680D4A15401D602D
:1021D000226893680B490B40936021688B68F26812
:1021E0003069024313438B602000FFF72CFF002867
:1021F000D2D121230122E254CEE70220D2E7C04609
:102200007F7F7F00FFFFFBFF70B504000E002023DF
:10221000C35C012B48D020230121C154013301317B
:10222000C154002A1BD0F5782D0473781B021D437E
:10223000B3781D4333785B031D432368CA225A6277
:102240002368773A5A622000FFF7DAFE00281ED092
:102250002368FF225A6220230022E25470BD737863
:10226000DA0603D5102293430A337370F078FFF730
:1022700057FF05047078FFF753FF00020543B0785D
:10228000FFF74EFF054333785B031D43D5E7236813
:10229000064A15405D602000FFF7D5FE0028D7D123
:1022A00021230122E254D3E70220D7E73FFFFF00BA
:1022B000F8B504000D0016002023C35C012B68D084
:1022C00020230122C25401330132C2540368C832B0
:1022D0005A620368773A5A6203689B685B0518D5AF
:1022E000FFF782F807002368DB685B0711D5FFF76B
:1022F0007BF8C01BFA239B009842F4D92368FF2285
:102300005A622123FC3AE254013B0022E2540320AA
:102310003EE02268936820490B4093602168CB68B7
:10232000FF221A401D4B1343CB60FFF75DF80700F7
:102330002268D3685B0711D4FFF756F8C01BFA2355
:102340009B009842F4D92368FF225A622123FC3A69
:10235000E254013B0022E254032019E09368072174
:102360008B439360226893683343936023685D6175
:10237000226891688023DB000B4393602368FF226F
:102380005A622123FE3AE254013B0022E25400202B
:10239000F8BD0220FCE7C046FFFBFFFF7FFBFFFF0D
:1023A00070B582B006000C001500414B1868FA2188
:1023B000C901FDF785FE4201121A92001218D200DF
:1023C00001922023F35C012B00D16EE02023012138
:1023D000F15401330131F1543368C8315962336823
:1023E0007739596231688B685B0508D5019B013BE1
:1023F0000193019B002B42D0CB685B07F6D48B681E
:102400002C4803408B603068C368FF2119402A4B79
:102410000B43C3600192019B013B0193019B002B85
:1024200037D03268D3685B07F5D5936807218B43B3
:102430009360326893682B43936033685C611F4BF1
:102440001968802252031143196099680A439A60FF
:10245000326891688023DB010B4393603268916896
:102460008023DB000B4393603368FF225A622123F1
:10247000FE3AF254013B0022F254002013E0FF33F5
:102480004B62DE3B0322F254013B0022F254032054
:1024900009E03368FF225A622123FC3AF254013BDF
:1024A0000022F254032002B070BD0220FBE7C046B8
:1024B00004000020FFFBFFFF7FFBFFFF0004014043
:1024C00070B504002023C35C012B38D020230122E7
:1024D000C25401330132C2540368C8325A620368DD
:1024E000773A5A620268936816490B409360026813
:1024F000936815490B409360FEF776FF050022684C
:10250000D3685B0711D4FEF76FFF401BFA229200DD
:102510009042F4D92368FF225A622123FC3AE25404
:10252000013B0022E254032008E0FF235362DE3B1C
:102530000122E254013B0022E254002070BD02203F
:10254000FCE7C046FFFBFFFFFFBFFFFF8022130039
:102550000B400A4200D0802338220A40382A0CD08F
:10256000F2220A40F22A0AD0D4220A40D42A08D001
:1025700001680A6813430B607047B823F0E7134300
:10258000F2E720321343F3E730B5826C012A11D011
:102590000024F2230B40F22B13D0D4230B40D42B76
:1025A0001DD038230B40382B2CD002681368A3436E
:1025B000136030BD80231C000C400B42EDD0802402
:1025C000E7E7B03B1C4303681B685B0202D41307B8
:1025D000E3D4C2241307E0D430231C43DDE7903B4F
:1025E000234305682D686D0203D4150706D4C42360
:1025F0002343120704D430241C43D2E71C00D0E745
:102600001C00CEE7234302681268520202D4B823AA
:102610001C43CAE71C00C8E7026893699B0701D501
:102620000023936203689A69D20703D49A6901214F
:102630000A439A617047000070B504686068049DA1
:102640006E0D8025ED002E40064D3543A8438905CB
:10265000890D120411431943049B19430843606018
:1026600070BDC046FF63FF07C36BAA2B12D0C26BBD
:10267000AA231B029A4210D0C26BAA231B049A42BF
:102680000FD0C26BAA231B069A4205D1C023DB04DC
:10269000C36301E00023C36370478023DB04C3638B
:1026A000FAE780239B04C363F6E7000010B5041E1D
:1026B00000D174E0836C002B52D00223A364226803
:1026C000136801218B4313606368226835490B400E
:1026D00013612268536934490B405361226853697E
:1026E0005B005B0853612368226B5A612268936820
:1026F0000B409360E368002B07D02269012A35D094
:1027000021688422120213438B602369022B33D089
:1027100022685168254B0B4353606369A2691343D8
:10272000E269120221681343CB60236A626A134391
:10273000A26A1343E26A1343A16822680B43136041
:10274000A26A80231B049A421BD021680A680123D5
:102750001A430A600022E2642364A364002010BDCF
:1027600044330022C254FDF76DFFA6E721688022A2
:10277000120213438B60C8E72368802212015A605B
:10278000C6E7E36A002B03D0802292039342DCD198
:102790002268116880235B020B431360D5E7012098
:1027A000DDE7C046FFFFFFF0FF7FFFFF0080000274
:1027B00030B583B004000D00816C012900D06DE0BC
:1027C0004331415C012900D16AE044210120605479
:1027D0003239A1640021E164626363870699E16391
:1027E000002A3CD0FF2B3FD9FF232387228F638F02
:1027F000934201D9FF2A39D0E36B216C12290DD104
:10280000AA2B0BD0AA2109048B4207D0AA210902C6
:102810008B4203D0AA2109068B4236D12000FFF754
:1028200023FF228FE36BD2B21E49009129002000C2
:10283000FFF702FF23685B685B0106D5238F013B2E
:102840002387638F013B9BB2638744230022E254BA
:10285000F2212000FFF77AFE002003B030BDE26BCA
:1028600011490A40E263BDE72387BFE7E16B80239C
:10287000DB04194080235B040B43D2B20949009169
:1028800029002000FFF7D8FEDFE7E36BD2B200217A
:10289000009129002000FFF7CFFECBE70220DCE704
:1028A0000220DAE700200080FFFFFFFD30B583B093
:1028B00004000D00816C012961D14331415C012983
:1028C0005FD04421012060542239A1640021E164D9
:1028D000626363870699E163002A31D0FF2B34D904
:1028E000FF232387228F638F934201D9FF2A2ED0A3
:1028F000E36B216C22290DD1AA2B0BD0AA2109044C
:102900008B4207D0AA2109028B4203D0AA210906D3
:102910008B422BD12000FFF7A7FE228FE36BD2B2B0
:102920001949009129002000FFF786FE4423002268
:10293000E254D4212000FFF709FE002003B030BD8F
:10294000E26B12490A40E263C8E72387CAE7E16BFA
:102950008023DB04194080235B040B43D2B20A4975
:10296000009129002000FFF767FEDFE7E36BD2B29A
:102970000021009129002000FFF75EFED6E702202B
:10298000DCE70220DAE7C04600240080FFFFFFFDFD
:1029900010B5082383643821FFF7D8FD002010BD4F
:1029A0007047704770477047704770B50400026801
:1029B00093691168D80508D5080606D5E06C01258D
:1029C0002843E06480204000D0615A0509D50A06FA
:1029D00007D5E26C08200243E26422688020C00030
:1029E000D0619A0509D50A0607D5E26C0220024398
:1029F000E2642268FF30FF30D061DA0409D50A06AC
:102A000007D5E26C20200243E26422688020400166
:102A1000D0619A0409D50A0607D5E26C402002432A
:102A2000E264226880208001D0611B0509D5090677
:102A300007D5E36C80221343E364236880221201EC
:102A4000DA612000FFF7E8FDE36C002B13D0042BC4
:102A500011D05B060CD4A26C32231340322B03D06E
:102A600042231340422B03D1012323640733A36481
:102A70002000FDF777FE70BD10B5FFF796FF10BD83
:102A800030B583B004000D004423C35C012B00D19A
:102A90002DE10123442283540A09134213D18B06EA
:102AA00026D44B0700D471E003685A6A436B1A704E
:102AB000436B01334363038F013B0387438F013B28
:102AC0009BB243870EE003681022DA61C36C0C3AB4
:102AD0001343C364FFF7A0FD44230022E254200007
:102AE000FDF740FE44230022E254002003B030BD35
:102AF000FFF75BFFA36C122B2AD0A36C222BF1D122
:102B00006D070FD523685A6A636B1A70636B0133C4
:102B10006363238F002B05D0013B2387638F013B29
:102B20009BB26387D4212000FFF72EFD236820226B
:102B3000DA61226853686F490B40536001232364B4
:102B4000A36443330022E2542000FFF72AFFC9E7C1
:102B5000F2212000FFF718FD23682022DA612268A5
:102B6000536864490B40536021680A6801239A4303
:102B70000A602364A36444220021A15421680A68E6
:102B800013430B602000FFF70BFFABE78B070ED55D
:102B9000426B036812789A62436B01334363038F7D
:102BA000013B0387438F013B9BB243879AE70B06A8
:102BB00064D5438F002B2FD0038F002B2CD10368BB
:102BC00059688905890D438FFF2B0ED9C26B80236D
:102BD000DB041A4080235B04134300220092FF327F
:102BE000FFF72AFDFF2323877CE7428F92B20287FB
:102BF000C36BD2B2002000902000FFF71DFD2368B8
:102C00005B685B0100D46DE7238F013B2387638FF3
:102C1000013B9BB2638765E7638F002B00D061E7C0
:102C2000238F002B00D05DE723685B689B0100D5F4
:102C300058E7A36C122B12D0A36C222B00D051E7C3
:102C4000D4212000FFF7A0FCA36C23640123A3641C
:102C500043330022E2542000FFF7A3FE42E7F221B3
:102C60002000FFF791FCA36C23640123A36443338A
:102C70000022E2542000FFF793FE33E76D0600D4F4
:102C800030E7438F002B00D02CE7436B002B19D08B
:102C900003685B689B0100D524E7836C122B18D076
:102CA000836C222B00D01DE7D421FFF76DFCA36CB1
:102CB00023640123A36443330022E2542000FFF77E
:102CC00070FE0FE7026851688023DB010B435360FD
:102CD00008E7F221FFF758FCA36C23640123A364E7
:102CE00043330022E2542000FFF75AFEFAE60220A6
:102CF000FCE6C04600E800FE70B582B004000D009E
:102D00004423C35C012B00D139E1012344228354C5
:102D10000A09134200D16AE0438F002B49D10368AE
:102D20001022DA61FFF778FC44230022E254AD065A
:102D300039D5A36C1B0736D5226893695B070ED57E
:102D4000526A636B1A70636B01336363238F002BCA
:102D500005D0013B2387638F013B9BB26387F6213C
:102D60002000FFF711FC38212000FFF70DFC22683E
:102D7000516880231B020B435360226853688149CA
:102D80000B40536023682022DA612368183ADA6125
:102D90000023E363A26C22640122A2644332A354A1
:102DA0002000FDF7E1FC44230022E254002002B0A1
:102DB00070BD03681022DA61836C0364836C223275
:102DC00093438364836C103293438364F621FFF74B
:102DD000DBFBE36C04221343E3642000FFF71CFCDD
:102DE00044230022E2542000FDF7BCFC9FE70B07C0
:102DF0002BD44B0702D40B0600D497E0A26C4223DD
:102E00001340422B35D0A26C32231340322B00D01A
:102E10008DE7638F002B00D189E7238F002B00D033
:102E200085E7638FFF2B6AD9E26B8023DB041A40AE
:102E300080235B04134300220092FF320021200014
:102E4000FFF7FAFBFF23238771E703689969090CF1
:102E5000012211409869400C7E3202401868082611
:102E6000B043186044230020E0542000FFF79CFD8D
:102E70005DE723685A6A636B1A70636B013363639F
:102E8000238F013B2387638F013B9BB26387638F53
:102E9000012B13D0638F002B1DD1D4212000FFF70D
:102EA00073FBA36C2364A36C42229343A364442367
:102EB0000022E2542000FFF776FD38E7E36B324A48
:102EC0001340E363E36B00220092013200212000F3
:102ED000FFF7B2FB2BE7E26B8023DB041A40802371
:102EE0005B04134300220092013200212000FFF70F
:102EF000A3FB2268536825490B40536017E7628F94
:102F000092B22287E36BD2B2002100912000FFF73A
:102F100093FB23685B685B0100D408E7238F013BC8
:102F20002387638F013B9BB2638700E78B0700D445
:102F3000FDE6438F002B0DD0426B036812789A6236
:102F4000436B01334363438F013B9BB24387038F42
:102F5000013B0387638F002B00D0E8E6F2212000BD
:102F6000FFF712FBA36C2364A36C32229343A36488
:102F700044230022E2542000FFF714FDD7E602208C
:102F800015E7C04600E800FEFFFFFFFEFF7FFFFFE2
:102F900070B5040003689E691D6872232B40722B74
:102FA00013D074232B40742B2DD02B0703D4AB06E6
:102FB00001D4ED0608D5330703D4B30601D4F306D4
:102FC00002D5A36C1B073CD470BDB30707D43306EE
:102FD00005D4730603D4B30601D4F306E1D5A26C7D
:102FE00032231340322B09D0A26C12231340122B30
:102FF000D7D131002000FFF743FDD2E73100200098
:10300000FFF77AFECDE7730707D4330605D47306BE
:1030100003D4B30601D4F306C7D5A26C42231340F0
:10302000422B09D0A26C22231340222BBDD13100A8
:103030002000FFF725FDB8E731002000FFF75CFE18
:10304000B3E731002000FFF757FEBDE7806C704703
:1030500003688022D205904205D0124A904202D0E5
:10306000114A904203D1702293434A68134380224D
:10307000D205904205D00B4A904202D00A4A9042B3
:1030800003D10A4A1340CA681343802293430A6952
:10309000134303608B68C3620B688362012343613F
:1030A0007047C0460008014000140140FFFCFFFFCC
:1030B00030B5036A046A0125AC4304628469EF35C4
:1030C000AC43120122430A24A3430B4382610362EF
:1030D00030BD000030B5036A1024A3430362846945
:1030E000036A054D2C4012032243A024A343090187
:1030F00019438261016230BDFF0FFFFF83687022B8
:1031000093430B43693A13438360704730B5846837
:10311000034D2C401B0213430B432343836030BDFC
:10312000FF00FFFF70B5041E1ED03923C35C002BC7
:1031300014D0392502236355210001C9FFF788FF08
:1031400001233E22A354043AA3540132A354013272
:10315000A3540132A3546355002070BD38330022BC
:10316000C254FEF77FF8E4E70120F6E73923C35C99
:10317000012B23D138330222C2540268D3680121C3
:103180000B43D36003688022D20593420BD00D4AD3
:10319000934208D00C4A934205D01A6801210A4391
:1031A0001A6000200BE0996807220A40062A07D01F
:1031B0001A6801210A431A60002000E001207047CC
:1031C0000020FCE700080140001401400268D368B9
:1031D00001218B43D3600368196A064A114203D167
:1031E0001A6801218A431A6039230122C25400203F
:1031F0007047C0461111000010B504000B003822C2
:10320000825C012A00D177E0382201218154013209
:103210000131815401688A68384802408A6019681F
:1032200060294FD023D8402957D011D8202904D065
:103230000AD8002901D0102904D12068FFF75EFFC9
:1032400000202AE0012028E03029F6D0012024E0E7
:1032500050290AD15968DA682068FFF729FF2068E9
:103260005021FFF74BFF002017E0012015E08022DE
:10327000520191423CD080229201914214D0702997
:1032800038D199685A68DB682068FFF73FFF2268E9
:10329000936877210B439360002039230122E25485
:1032A000013B0022E25410BD99685A68DB6820682F
:1032B000FFF72CFF226891688023DB010B439360AA
:1032C0000020EAE75968DA682068FFF703FF206802
:1032D0006021FFF713FF0020DFE75968DA682068F4
:1032E000FFF7E6FE20684021FFF708FF0020D4E743
:1032F0000020D2E70120D0E70220D4E78800FFFFBA
:10330000704770477047704710B504000268136932
:103310009B070FD5D3689B070CD503235B42136132
:103320000433037603689B699B0755D0FFF7E9FFD9
:1033300000232376226813695B0712D5D3685B07E5
:103340000FD505235B4213610733237623689A69FF
:10335000C0239B001A4245D02000FFF7D2FF002374
:103360002376226813691B0710D5D3681B070DD578
:1033700009235B4213610D3323762368DB699B07C6
:1033800037D02000FFF7BDFF0023237622681369A2
:10339000DB0612D5D368DB060FD511235B42136120
:1033A000193323762368DA69C0239B001A4227D099
:1033B0002000FFF7A6FF0023237622681369DB07AE
:1033C00002D5D368DB0722D4226813695B0602D5D5
:1033D000D3685B0622D410BDFFF792FF2000FFF7F1
:1033E00091FFA5E72000FFF78BFF2000FFF78AFF82
:1033F000B5E72000FFF784FF2000FFF783FFC3E756
:103400002000FFF77DFF2000FFF77CFFD3E70223BA
:103410005B4213612000FDF74FFFD5E741235B427C
:1034200013612000FFF76FFFD5E7000030B53823A8
:10343000C35C012B25D038230122C2540133013251
:10344000C25403685C689D686E3294430A682243E4
:103450005A6003688022D205934205D00A4A9342FB
:1034600002D00A4A934204D1802295434A682A43F3
:103470009A6039230122C254013B0022C254002029
:1034800030BD0220FCE7C0460008014000140140A6
:10349000F0B5CE469946030C9C46130447461B0CD8
:1034A0001D000E0061460404240C80B50700100CBA
:1034B0004B436543414360432C0CC01824188C4691
:1034C000A34203D980235B029846C444494679430A
:1034D0005643230C2D042D0C8919634424046019D0
:1034E000C918C0BCB946B046F0BDC046F0B5574695
:1034F0004E464546DE46E0B504000D00924699462C
:1035000083B08B4230D82DD049465046FCF7A2FEFE
:10351000290006002000FCF79DFE331A9846203B48
:1035200034D49B4653465A46934042461F00534666
:1035300093401E00AF423BD8AF4200D179E05B46DA
:10354000A41BBD41002B00DA76E00022002300928C
:10355000019301235A46934001930123424693402D
:10356000009329E08242CFD90022002300920193E8
:103570000C9B002B01D01C605D600098019903B08A
:10358000F0BCBB46B246A946A046F0BD42469B46AB
:1035900020239B1A5246DA40414613004A468A408D
:1035A000170042461F43534693401E00AF42C3D903
:1035B00000220023009201934346002BD8D0FB0742
:1035C00072081A4346467B080EE0AB4201D1A24284
:1035D0000CD8A41A9D41012024196D410021013EFF
:1035E00024184D41002E06D0AB42EED9013E2419DD
:1035F0006D41002EF8D1009801995B460019694190
:10360000002B24DB2B005A464646D3402A001C00E0
:10361000F2405B461500002B2ADB26009E4033005B
:1036200026004746BE403200801A99410090019121
:103630009EE7A342BCD882E74246202300219B1A82
:103640000022009101920122DA40019285E7424670
:1036500020239B1A2A0046469A402300F340464600
:1036600013432A001C00F2405B461500002BD4DAFD
:10367000202342462F009B1B97402600DE403B0044
:103680003343CDE7F0B5DE46454657464E46E0B5F6
:1036900087B0009201930B031B0B9B46CA0F4B0094
:1036A000040080465B0D029200D1BFE08F4A934236
:1036B00038D05946420FC9000A43802109041143FA
:1036C000C20090468A4A894692469A4400230024C2
:1036D0000393009E019F3B031B0B7A0030009B4627
:1036E000520DFD0F002A00D17FE0804B9A426ED030
:1036F0005946730FC9000B438021090419438B46B7
:103700007B49F3008C46514662448A1A9246002156
:10371000029E6E40F6B20F2C00D9F9E0754AA40063
:10372000125997465A460243914600D0B6E09A464F
:103730000223904608240393CBE72E0000210023A8
:10374000002288461B051343F60733434046190001
:1037500007B0F0BCBB46B246A946A046F0BDCB467A
:103760004346029D0399022900D1FAE1032900D1C1
:10377000A1E00129E1D0604A524490464446002C21
:1037800000DC00E25A0704D00F221A40042A00D0BD
:103790007FE22E00DA085B46DB0106D55946574B1F
:1037A000802419408B46E4005444554B9C4209DC6C
:1037B0005B465B07134398465B4664055A02120B4F
:1037C000630DBFE7002100228846484BBAE75B46FD
:1037D000009A13434B4A9446E244002B59D10222EB
:1037E000144300220221934692E75B46009A13435A
:1037F00049D05B46002B00D1A4E15846FCF70CFDF4
:10380000030002000B3B1D27009EFB1A11005846C7
:10381000DE4008398840330003439B46009B8B40C1
:10382000394952448A460021924471E75B4603437A
:10383000994621D05B46002B00D171E15846FCF738
:10384000EBFC0B235B429C460200844466461D232E
:103850009B1B260011005846DE4008398840330083
:103860000343994623008B409846284B00249B1A1B
:103870009A46002303932CE7002398469A46013387
:103880000424039325E701221443002201219346D7
:103890003EE7032303211C43330039E79A46032301
:1038A000D9460C24039314E700238022984600266F
:1038B0000E4B120346E78022594612030A431203B5
:1038C00098462E00094B120B3CE780224946120312
:1038D000114202D059461142F0D080224B461203C9
:1038E0001A431203029E014B120B2BE7FF07000045
:1038F00001FCFFFFF43F0008FF030000FFFFFFFE95
:10390000FE07000001F8FFFFF30300000DFCFFFFBE
:10391000CB4500D2FAE000D1F5E0012252429446B4
:103920000022444648469046E2445A461F0E120280
:103930001B020293130C994617433B041B0C494688
:103940000093FCF743FC009A0B044243210C050052
:1039500019438A4207D9C919013D8F4203D88A42C7
:1039600001D9851EC919881A4946FCF72FFC009A0F
:10397000240442430904240C03000C43A24204D94A
:10398000E419013BA74200D8F7E00299A01A2D04E0
:103990000C0C09041D43090C2A0C2B04AB460D002A
:1039A0001B0C5D43059163435143049462435B18D0
:1039B0002C0CE318994203D9802149028C466244B9
:1039C000190C2D041B042D0C8A185D19904200D28D
:1039D00087E000D182E043465D1BA8459B41801AE9
:1039E0005B42C01AB14B534498461C00874200D139
:1039F0000CE14946FCF7EAFB0200009B03905A43A6
:103A00000B04290C19438A420AD90300C919013B46
:103A100003938F4204D88A4202D9831E0393C919A3
:103A2000881A4946FCF7D2FB0A00120494462A047D
:103A300065460099120C414303002A43914207D97D
:103A4000D2190138974203D8914201D9981ED21950
:103A5000039B521A1B0403430598190C05008C465E
:103A60001904090C4D438946614600956546484353
:103A700004994D43AC464D464D432918009D2D0CED
:103A8000A9464944884203D9802040028146CC445B
:103A9000009D080C2D0409042D0C60444D19824230
:103AA0000FD30BD001221343814A92456CDB1A1DC0
:103AB0009A429B415B42D2089B446CE6002D00D1A8
:103AC00093E0591EBA188C46BA4200D285E0824271
:103AD00000D2C7E000D1D5E00B00E3E7A84500D352
:103AE00079E75B46591E029B9C46E0441C009845C2
:103AF0009B415B42DB19C018874238D2824278D89A
:103B000075D08B4667E7434500D906E74A46D40798
:103B100050084246520814434246D207904604E7F2
:103B2000FCF77AFB15239C4684440200634620324E
:103B30001C2B00DC8AE623000838834099460023CA
:103B4000984692E6FCF768FB03000200153320322A
:103B50001C2B00DC57E600990838814000238B4677
:103B60005EE600212E0000228846524BEAE587429D
:103B7000C7D14445C2D98B462DE7A24200D804E7FD
:103B8000831EE41901E72E0001224146521A382A09
:103B900000DDD3E51F2A3FDC47481C00504459464E
:103BA00083408140D440581E834121430B435946F2
:103BB000D1400A00590709D00F211940042905D026
:103BC000191D99429B415B42D2180B00110268D526
:103BD0000021012300228846B4E50B00824200D078
:103BE00060E7029A954200D05CE73500C6E545459E
:103BF00087D902235B429C46029BE3449C46E044F7
:103C000098459B415B42DB19C018E4E6002B36DD8A
:103C1000012300229B44BEE51F2140464942091A68
:103C20005846C8400100202A04D05846234A52442E
:103C3000904003435A1E934107200B43010000228A
:103C40001940184209D00F21194004291FD0181D0E
:103C500098428941030049424907DB080B439846D3
:103C600000236FE50299023B49008C4602998C457E
:103C700089414942C919521861460291AEE70123B0
:103C80005B4281E70299A942ECD36346A9E7002190
:103C9000E3E71A1D9A429B415B422E00D2089B44E7
:103CA00079E551075202120BD7E7C046FF03000027
:103CB00002FCFFFFFF0700001E0400003E0400009E
:103CC0000B00020070B5164D0C0382B049000020B5
:103CD00000920193240B490DDE0FA94204DD114827
:103CE000814203DD104BF01802B070BD802040030C
:103CF00020430E4C641A1F2C08DD0D4B5B1AD84074
:103D000003005842002EEFD11800EDE7094B009A4E
:103D10009C46030061448B40E2401343F1E7C046F8
:103D2000FE0300001D040000FFFFFF7F33040000BE
:103D300013040000EDFBFFFF70B5002816D0C31779
:103D4000C5185D40C40F2800FCF766FA104B1B1A1B
:103D50005B055B0D0A2814DC02002E00153296402C
:103D60000B22121AD5402D032D0B03E00024002353
:103D7000002500261B052B43E407234330001900D0
:103D800070BD0B3885402D0300262D0BF2E7C04691
:103D90001E040000F0B5830741D00500040003278E
:103DA000861804E0297001353B4204D01C00631CD6
:103DB000B442F7D1F0BD013A8218121B032A25D96B
:103DC000FF240C4025022D192C042D190F2A28D967
:103DD0001C0013002600103B1B091B0110369B1909
:103DE00025606560A560E5601034A342F8D10F241A
:103DF0000C26144016402200002E07D0A208920084
:103E0000D21820C39342FCD103222240002AD1D0F1
:103E1000C9B29A18197001339A42FBD1CAE703005C
:103E2000CCE71400EAE7C04670B50D4B0D4D5E1BA4
:103E3000B610AB4205D0002408CD01349847A64205
:103E4000FAD800F095F8084B084D5E1BB610AB424F
:103E500005D0002408CD01349847A642FAD870BD99
:103E60003C4000083C400008444000083C4000083A
:103E70007047C0467047C046034B10B5002B02D0B8
:103E8000024800F005F810BD00000000A13E000847
:103E900010B5010000230022002000F015F810BD2D
:103EA00070B5074C074D641BA41005D0013CA3005E
:103EB000EB589847002CF9D100F060F870BDC0466F
:103EC0004840000844400008F0B5D6464F464646F4
:103ED0009846244BC0B5060018689A460F009146D4
:103EE000FFF7C6FF204B1D68002D32D053466C688B
:103EF00018681F2C30DC002E0CD1631C0234A40087
:103F00006B606751FFF7B6FF0020E0BCBA46B146D0
:103F1000A846F0BD49468822A300EB189950C42159
:103F200049008C46AC446146873AA24009689146F4
:103F30001143624611608421424649005A50022EC4
:103F4000DBD129004A468D31FF310B6813430B60EA
:103F5000D3E7064D1D60C9E7FFF78CFF0120404203
:103F6000D3E7C04610000020DC010020E001002063
:103F7000F8B5C046F8BC08BC9E467047F8B5C046C8
:083F8000F8BC08BC9E46704726
:103F88005C0400086C0400087C0400088E04000827
:103F98009E040008B0040008C0040008D00400080B
:103FA8003E080008640800088C080008C6080008D5
:103FB800E6080008E80D0008120E0008580F00086F
:103FC800820E00089C0E0008E80E00084C0F00083E
:103FD800030406080C101820300000000000000040
:103FE8000000000001020304060708091039000850
:103FF800C43700083C370008663700083C3700081B
:10400800A83800083C37000866370008C43700089D
:10401800C4370008A8380008663700085E3700086B
:0C4028005E3700085E370008CA38000848
:08403400B8F4FF7F0100000059
:08403C00793E0008E1020008D2
:04404400B5020008B9
:104048000B01000000002000010000000400000037
:04405800D80100206B
:0400000508001305D7
:00000001FF
